{
  "_format": "hh-sol-artifact-1",
  "contractName": "Upload",
  "sourceName": "contracts/Upload.sol",
  "abi": [
    {
      "inputs": [
        {
          "internalType": "address",
          "name": "",
          "type": "address"
        },
        {
          "internalType": "uint256",
          "name": "",
          "type": "uint256"
        }
      ],
      "name": "accessList",
      "outputs": [
        {
          "internalType": "address",
          "name": "user",
          "type": "address"
        },
        {
          "internalType": "bool",
          "name": "access",
          "type": "bool"
        }
      ],
      "stateMutability": "view",
      "type": "function"
    },
    {
      "inputs": [
        {
          "internalType": "address",
          "name": "_user",
          "type": "address"
        },
        {
          "internalType": "string",
          "name": "fileName",
          "type": "string"
        },
        {
          "internalType": "string",
          "name": "url",
          "type": "string"
        }
      ],
      "name": "add",
      "outputs": [],
      "stateMutability": "nonpayable",
      "type": "function"
    },
    {
      "inputs": [
        {
          "internalType": "address",
          "name": "user",
          "type": "address"
        }
      ],
      "name": "allow",
      "outputs": [],
      "stateMutability": "nonpayable",
      "type": "function"
    },
    {
      "inputs": [
        {
          "internalType": "address",
          "name": "user",
          "type": "address"
        }
      ],
      "name": "disallow",
      "outputs": [],
      "stateMutability": "nonpayable",
      "type": "function"
    },
    {
      "inputs": [
        {
          "internalType": "address",
          "name": "user",
          "type": "address"
        }
      ],
      "name": "display",
      "outputs": [
        {
          "components": [
            {
              "internalType": "string",
              "name": "fileName",
              "type": "string"
            },
            {
              "internalType": "string",
              "name": "url",
              "type": "string"
            }
          ],
          "internalType": "struct Upload.FileData[]",
          "name": "",
          "type": "tuple[]"
        }
      ],
      "stateMutability": "view",
      "type": "function"
    },
    {
      "inputs": [
        {
          "internalType": "address",
          "name": "",
          "type": "address"
        },
        {
          "internalType": "address",
          "name": "",
          "type": "address"
        }
      ],
      "name": "ownership",
      "outputs": [
        {
          "internalType": "bool",
          "name": "",
          "type": "bool"
        }
      ],
      "stateMutability": "view",
      "type": "function"
    },
    {
      "inputs": [
        {
          "internalType": "address",
          "name": "",
          "type": "address"
        },
        {
          "internalType": "address",
          "name": "",
          "type": "address"
        }
      ],
      "name": "previousData",
      "outputs": [
        {
          "internalType": "bool",
          "name": "",
          "type": "bool"
        }
      ],
      "stateMutability": "view",
      "type": "function"
    },
    {
      "inputs": [],
      "name": "shareAccess",
      "outputs": [
        {
          "components": [
            {
              "internalType": "address",
              "name": "user",
              "type": "address"
            },
            {
              "internalType": "bool",
              "name": "access",
              "type": "bool"
            }
          ],
          "internalType": "struct Upload.Access[]",
          "name": "",
          "type": "tuple[]"
        }
      ],
      "stateMutability": "view",
      "type": "function"
    },
    {
      "inputs": [
        {
          "internalType": "address",
          "name": "",
          "type": "address"
        },
        {
          "internalType": "uint256",
          "name": "",
          "type": "uint256"
        }
      ],
      "name": "value",
      "outputs": [
        {
          "internalType": "string",
          "name": "fileName",
          "type": "string"
        },
        {
          "internalType": "string",
          "name": "url",
          "type": "string"
        }
      ],
      "stateMutability": "view",
      "type": "function"
    }
  ],
  "bytecode": "0x608060405234801561001057600080fd5b506119f5806100206000396000f3fe608060405234801561001057600080fd5b50600436106100935760003560e01c8063974fe59111610066578063974fe59114610146578063a9ed9cb814610176578063bc8bef8114610192578063eb39113f146101b0578063ff9913e8146101e057610093565b80630f8b27d714610098578063227d5e9a146100c957806346bc7fd9146100f957806370c2b41914610115575b600080fd5b6100b260048036038101906100ad9190610f9d565b6101fc565b6040516100c092919061106d565b60405180910390f35b6100e360048036038101906100de91906110a4565b61034d565b6040516100f091906110ff565b60405180910390f35b610113600480360381019061010e919061124f565b61037c565b005b61012f600480360381019061012a9190610f9d565b61042b565b60405161013d9291906112e9565b60405180910390f35b610160600480360381019061015b91906110a4565b610495565b60405161016d91906110ff565b60405180910390f35b610190600480360381019061018b9190611312565b6104c4565b005b61019a6106e6565b6040516101a7919061143b565b60405180910390f35b6101ca60048036038101906101c59190611312565b6107ef565b6040516101d791906115ad565b60405180910390f35b6101fa60048036038101906101f59190611312565b610aaf565b005b6000602052816000526040600020818154811061021857600080fd5b90600052602060002090600202016000915091505080600001805461023c906115fe565b80601f0160208091040260200160405190810160405280929190818152602001828054610268906115fe565b80156102b55780601f1061028a576101008083540402835291602001916102b5565b820191906000526020600020905b81548152906001019060200180831161029857829003601f168201915b5050505050908060010180546102ca906115fe565b80601f01602080910402602001604051908101604052809291908181526020018280546102f6906115fe565b80156103435780601f1061031857610100808354040283529160200191610343565b820191906000526020600020905b81548152906001019060200180831161032657829003601f168201915b5050505050905082565b60036020528160005260406000206020528060005260406000206000915091509054906101000a900460ff1681565b6000808473ffffffffffffffffffffffffffffffffffffffff1673ffffffffffffffffffffffffffffffffffffffff1681526020019081526020016000206040518060400160405280848152602001838152509080600181540180825580915050600190039060005260206000209060020201600090919091909150600082015181600001908161040d91906117db565b50602082015181600101908161042391906117db565b505050505050565b6002602052816000526040600020818154811061044757600080fd5b90600052602060002001600091509150508060000160009054906101000a900473ffffffffffffffffffffffffffffffffffffffff16908060000160149054906101000a900460ff16905082565b60016020528160005260406000206020528060005260406000206000915091509054906101000a900460ff1681565b6000600160003373ffffffffffffffffffffffffffffffffffffffff1673ffffffffffffffffffffffffffffffffffffffff16815260200190815260200160002060008373ffffffffffffffffffffffffffffffffffffffff1673ffffffffffffffffffffffffffffffffffffffff16815260200190815260200160002060006101000a81548160ff02191690831515021790555060005b600260003373ffffffffffffffffffffffffffffffffffffffff1673ffffffffffffffffffffffffffffffffffffffff168152602001908152602001600020805490508110156106e2578173ffffffffffffffffffffffffffffffffffffffff16600260003373ffffffffffffffffffffffffffffffffffffffff1673ffffffffffffffffffffffffffffffffffffffff168152602001908152602001600020828154811061060e5761060d6118ad565b5b9060005260206000200160000160009054906101000a900473ffffffffffffffffffffffffffffffffffffffff1673ffffffffffffffffffffffffffffffffffffffff16036106cf576000600260003373ffffffffffffffffffffffffffffffffffffffff1673ffffffffffffffffffffffffffffffffffffffff16815260200190815260200160002082815481106106aa576106a96118ad565b5b9060005260206000200160000160146101000a81548160ff0219169083151502179055505b80806106da9061190b565b91505061055c565b5050565b6060600260003373ffffffffffffffffffffffffffffffffffffffff1673ffffffffffffffffffffffffffffffffffffffff168152602001908152602001600020805480602002602001604051908101604052809291908181526020016000905b828210156107e6578382906000526020600020016040518060400160405290816000820160009054906101000a900473ffffffffffffffffffffffffffffffffffffffff1673ffffffffffffffffffffffffffffffffffffffff1673ffffffffffffffffffffffffffffffffffffffff1681526020016000820160149054906101000a900460ff16151515158152505081526020019060010190610747565b50505050905090565b60603373ffffffffffffffffffffffffffffffffffffffff168273ffffffffffffffffffffffffffffffffffffffff1614806108b15750600160008373ffffffffffffffffffffffffffffffffffffffff1673ffffffffffffffffffffffffffffffffffffffff16815260200190815260200160002060003373ffffffffffffffffffffffffffffffffffffffff1673ffffffffffffffffffffffffffffffffffffffff16815260200190815260200160002060009054906101000a900460ff165b6108f0576040517f08c379a00000000000000000000000000000000000000000000000000000000081526004016108e79061199f565b60405180910390fd5b6000808373ffffffffffffffffffffffffffffffffffffffff1673ffffffffffffffffffffffffffffffffffffffff168152602001908152602001600020805480602002602001604051908101604052809291908181526020016000905b82821015610aa45783829060005260206000209060020201604051806040016040529081600082018054610981906115fe565b80601f01602080910402602001604051908101604052809291908181526020018280546109ad906115fe565b80156109fa5780601f106109cf576101008083540402835291602001916109fa565b820191906000526020600020905b8154815290600101906020018083116109dd57829003601f168201915b50505050508152602001600182018054610a13906115fe565b80601f0160208091040260200160405190810160405280929190818152602001828054610a3f906115fe565b8015610a8c5780601f10610a6157610100808354040283529160200191610a8c565b820191906000526020600020905b815481529060010190602001808311610a6f57829003601f168201915b5050505050815250508152602001906001019061094e565b505050509050919050565b60018060003373ffffffffffffffffffffffffffffffffffffffff1673ffffffffffffffffffffffffffffffffffffffff16815260200190815260200160002060008373ffffffffffffffffffffffffffffffffffffffff1673ffffffffffffffffffffffffffffffffffffffff16815260200190815260200160002060006101000a81548160ff021916908315150217905550600360003373ffffffffffffffffffffffffffffffffffffffff1673ffffffffffffffffffffffffffffffffffffffff16815260200190815260200160002060008273ffffffffffffffffffffffffffffffffffffffff1673ffffffffffffffffffffffffffffffffffffffff16815260200190815260200160002060009054906101000a900460ff1615610d615760005b600260003373ffffffffffffffffffffffffffffffffffffffff1673ffffffffffffffffffffffffffffffffffffffff16815260200190815260200160002080549050811015610d5b578173ffffffffffffffffffffffffffffffffffffffff16600260003373ffffffffffffffffffffffffffffffffffffffff1673ffffffffffffffffffffffffffffffffffffffff1681526020019081526020016000208281548110610c8757610c866118ad565b5b9060005260206000200160000160009054906101000a900473ffffffffffffffffffffffffffffffffffffffff1673ffffffffffffffffffffffffffffffffffffffff1603610d48576001600260003373ffffffffffffffffffffffffffffffffffffffff1673ffffffffffffffffffffffffffffffffffffffff1681526020019081526020016000208281548110610d2357610d226118ad565b5b9060005260206000200160000160146101000a81548160ff0219169083151502179055505b8080610d539061190b565b915050610bd5565b50610ef2565b600260003373ffffffffffffffffffffffffffffffffffffffff1673ffffffffffffffffffffffffffffffffffffffff16815260200190815260200160002060405180604001604052808373ffffffffffffffffffffffffffffffffffffffff168152602001600115158152509080600181540180825580915050600190039060005260206000200160009091909190915060008201518160000160006101000a81548173ffffffffffffffffffffffffffffffffffffffff021916908373ffffffffffffffffffffffffffffffffffffffff16021790555060208201518160000160146101000a81548160ff02191690831515021790555050506001600360003373ffffffffffffffffffffffffffffffffffffffff1673ffffffffffffffffffffffffffffffffffffffff16815260200190815260200160002060008373ffffffffffffffffffffffffffffffffffffffff1673ffffffffffffffffffffffffffffffffffffffff16815260200190815260200160002060006101000a81548160ff0219169083151502179055505b50565b6000604051905090565b600080fd5b600080fd5b600073ffffffffffffffffffffffffffffffffffffffff82169050919050565b6000610f3482610f09565b9050919050565b610f4481610f29565b8114610f4f57600080fd5b50565b600081359050610f6181610f3b565b92915050565b6000819050919050565b610f7a81610f67565b8114610f8557600080fd5b50565b600081359050610f9781610f71565b92915050565b60008060408385031215610fb457610fb3610eff565b5b6000610fc285828601610f52565b9250506020610fd385828601610f88565b9150509250929050565b600081519050919050565b600082825260208201905092915050565b60005b83811015611017578082015181840152602081019050610ffc565b60008484015250505050565b6000601f19601f8301169050919050565b600061103f82610fdd565b6110498185610fe8565b9350611059818560208601610ff9565b61106281611023565b840191505092915050565b600060408201905081810360008301526110878185611034565b9050818103602083015261109b8184611034565b90509392505050565b600080604083850312156110bb576110ba610eff565b5b60006110c985828601610f52565b92505060206110da85828601610f52565b9150509250929050565b60008115159050919050565b6110f9816110e4565b82525050565b600060208201905061111460008301846110f0565b92915050565b600080fd5b600080fd5b7f4e487b7100000000000000000000000000000000000000000000000000000000600052604160045260246000fd5b61115c82611023565b810181811067ffffffffffffffff8211171561117b5761117a611124565b5b80604052505050565b600061118e610ef5565b905061119a8282611153565b919050565b600067ffffffffffffffff8211156111ba576111b9611124565b5b6111c382611023565b9050602081019050919050565b82818337600083830152505050565b60006111f26111ed8461119f565b611184565b90508281526020810184848401111561120e5761120d61111f565b5b6112198482856111d0565b509392505050565b600082601f8301126112365761123561111a565b5b81356112468482602086016111df565b91505092915050565b60008060006060848603121561126857611267610eff565b5b600061127686828701610f52565b935050602084013567ffffffffffffffff81111561129757611296610f04565b5b6112a386828701611221565b925050604084013567ffffffffffffffff8111156112c4576112c3610f04565b5b6112d086828701611221565b9150509250925092565b6112e381610f29565b82525050565b60006040820190506112fe60008301856112da565b61130b60208301846110f0565b9392505050565b60006020828403121561132857611327610eff565b5b600061133684828501610f52565b91505092915050565b600081519050919050565b600082825260208201905092915050565b6000819050602082019050919050565b61137481610f29565b82525050565b611383816110e4565b82525050565b60408201600082015161139f600085018261136b565b5060208201516113b2602085018261137a565b50505050565b60006113c48383611389565b60408301905092915050565b6000602082019050919050565b60006113e88261133f565b6113f2818561134a565b93506113fd8361135b565b8060005b8381101561142e57815161141588826113b8565b9750611420836113d0565b925050600181019050611401565b5085935050505092915050565b6000602082019050818103600083015261145581846113dd565b905092915050565b600081519050919050565b600082825260208201905092915050565b6000819050602082019050919050565b600082825260208201905092915050565b60006114a582610fdd565b6114af8185611489565b93506114bf818560208601610ff9565b6114c881611023565b840191505092915050565b600060408301600083015184820360008601526114f0828261149a565b9150506020830151848203602086015261150a828261149a565b9150508091505092915050565b600061152383836114d3565b905092915050565b6000602082019050919050565b60006115438261145d565b61154d8185611468565b93508360208202850161155f85611479565b8060005b8581101561159b578484038952815161157c8582611517565b94506115878361152b565b925060208a01995050600181019050611563565b50829750879550505050505092915050565b600060208201905081810360008301526115c78184611538565b905092915050565b7f4e487b7100000000000000000000000000000000000000000000000000000000600052602260045260246000fd5b6000600282049050600182168061161657607f821691505b602082108103611629576116286115cf565b5b50919050565b60008190508160005260206000209050919050565b60006020601f8301049050919050565b600082821b905092915050565b6000600883026116917fffffffffffffffffffffffffffffffffffffffffffffffffffffffffffffffff82611654565b61169b8683611654565b95508019841693508086168417925050509392505050565b6000819050919050565b60006116d86116d36116ce84610f67565b6116b3565b610f67565b9050919050565b6000819050919050565b6116f2836116bd565b6117066116fe826116df565b848454611661565b825550505050565b600090565b61171b61170e565b6117268184846116e9565b505050565b5b8181101561174a5761173f600082611713565b60018101905061172c565b5050565b601f82111561178f576117608161162f565b61176984611644565b81016020851015611778578190505b61178c61178485611644565b83018261172b565b50505b505050565b600082821c905092915050565b60006117b260001984600802611794565b1980831691505092915050565b60006117cb83836117a1565b9150826002028217905092915050565b6117e482610fdd565b67ffffffffffffffff8111156117fd576117fc611124565b5b61180782546115fe565b61181282828561174e565b600060209050601f8311600181146118455760008415611833578287015190505b61183d85826117bf565b8655506118a5565b601f1984166118538661162f565b60005b8281101561187b57848901518255600182019150602085019450602081019050611856565b868310156118985784890151611894601f8916826117a1565b8355505b6001600288020188555050505b505050505050565b7f4e487b7100000000000000000000000000000000000000000000000000000000600052603260045260246000fd5b7f4e487b7100000000000000000000000000000000000000000000000000000000600052601160045260246000fd5b600061191682610f67565b91507fffffffffffffffffffffffffffffffffffffffffffffffffffffffffffffffff8203611948576119476118dc565b5b600182019050919050565b7f596f7520646f6e27742068617665206163636573730000000000000000000000600082015250565b6000611989601583610fe8565b915061199482611953565b602082019050919050565b600060208201905081810360008301526119b88161197c565b905091905056fea2646970667358221220b28866df7015b1927c82eba2fc229a306d1efc1705c94bb27b0f005968e302ef64736f6c63430008130033",
  "linkReferences": {},
  "deployedLinkReferences": {}
}